:1000000008308A0000280000BB30840083130008F9
:10001000031917280630F800F701F70B0D28F80B25
:100020000C287B30F700F70B1328800B0A280800F8
:10003000831642181F288312081221288316831260
:10004000081683160812C2182928831288122B2832
:100050008316831288168316881242193328831256
:100060000813352883168312081783160813C2193C
:100070003D28831288133F2883168312881783161E
:100080008813000083128815831688110230F70048
:10009000F70B48284B28000083128811831688111B
:1000A000831208008316C301081600308312081A51
:1000B00001308316C304881600308312881A013079
:1000C000F7000310F70D77088316C30408170030F4
:1000D0008312081B0130F700F70DF70DFC30F70510
:1000E00077088316C304881700308312881B0130F9
:1000F000F700F70DF70DF70DF830F70577088316C1
:10010000C3044308F800831208008316881188107E
:10011000081183128810831688100816881608178D
:10012000881783120815831608110000831288159A
:100130008316881100008312522078088316C200AB
:100140008312881183168811000083128815831684
:100150008811AA28AB280000831252207808831641
:10016000C10083128811831688110812881208139F
:100170008813420EF700F030F70577084104F800C5
:100180007808C100C11B8D28BF08031DCB2883122E
:100190008810CD28831683128814831688100000D7
:1001A0008312081183160811000083128811831628
:1001B0008811400EC1000F30C1054108C2008312F2
:1001C0001820831640080F39C100C200831218207E
:1001D000080028308316AE000C30AF000130B000AC
:1001E0000630B1008312881183168811831288109B
:1001F00083168810831208118316081108128812BA
:10020000081388138811881008110F30BB0083125F
:10021000042001308316AD002D08033C031C1C296B
:100220000330C2008312182005308316BB008312EE
:1002300004208316AD0A0C290230C2008312182054
:1002400005308316BB00831204208316AD012D08F0
:10025000033C031C3929AE302D07840083130008AA
:10026000B200BF013208C000831285208316AD0A98
:10027000272983128A150A12842883163C0B4129E8
:1002800044294030BD004529BD0101303B02BD0776
:100290003D088038BE00BF013E08C00083128520A3
:1002A000080083163A08073A8312031961290B3AAA
:1002B00003196829063A03197429023A03197C299B
:1002C000832901308316BB00BC0083123D218A299B
:1002D0008316BF010130C0008312852002308316CF
:1002E000BB00831204208A2901308316BB00023030
:1002F000BC0083123D218A298316BF011030C00043
:10030000831285208A2901308316BF003A08C00075
:100310008312852008008E30F70083162E08F8001F
:100320002D08F900FA01F808031DA0297908F80042
:10033000F9010830F702F808031DA029F701A829E0
:100340000310F81BA729F90DF80DF703A029F813DE
:100350008312080083163A0803191B2AC2003E08BC
:1003600003191B2AC2070318BC297F30C202031CD1
:100370001B2A03191B2AC0298130C20703181B2A14
:100380004208F700F801F901FA013B08C600C61758
:100390003C08C5003D08C4001830C200C301441C1D
:1003A000E9294108FA07031CDB29F90A031DDB29A7
:1003B000F80A0319C3174008F907031CE229F80AD1
:1003C0000319C3173F08BC00BC173C08F807031803
:1003D000C317C30DF80CF90CFA0CC60CC50CC40CF1
:1003E0000310C20BCE290130F70703181B2AF81B94
:1003F000002AC60DFA0DF90DF80DF70303191B2A93
:10040000C61F112AFA0A031D112AF90A031D112A0F
:10041000F80A031D112AF80CF90CFA0CF70A031953
:100420001B2A3B08C3003F08C306C31F192AF8173D
:100430001F2AF8131F2AF701F801F901FA018312A4
:100440000800831631080319E72ABD00350803198F
:10045000E72ABD02031C312A7F30BD070318E72AB3
:10046000372A8130BD02031CE72A0319E72A3D0819
:10047000F700F801F901FA01BC013208BB00BB1713
:100480003308BA003408B9001930BD003808B90281
:1004900003185A2A0130BA0203185A2ABB02031859
:1004A0005A2ABC0203185A2ABC0ABB0ABA0A3808DC
:1004B000B9078C2A3708BA020318752A0130BB0223
:1004C0000318752ABC020318752ABC0ABB0A370830
:1004D000BA073808B907031C8C2ABA0A031D8C2AEC
:1004E000BB0A031D8C2ABC0A8C2A36088038BB0242
:1004F00003188B2A0130BC0203188B2ABC0A360869
:100500008038BB073708BA07031C692ABB0A031DDA
:10051000692ABC0A692A7A14BD0B8F2A9A2A031009
:10052000B90DBA0DBB0DBC0D0310FA0DF90DF80D88
:10053000BE0D462A3E1CA22A0310F80CF90CFA0C38
:10054000BE0CA52AF7030319E72ABE1BCE2A031007
:10055000B90DBA0DBB0DBC0D3808B9020318BA2A83
:100560000130BA020318BA2ABB020318BA2ABC0225
:10057000031CDD2A3708BA020318C52A0130BB0262
:100580000318C52ABC02031CDD2A36088038BB02CA
:100590000318CE2A0130BC02031CDD2AFA0A031D0F
:1005A000DD2AF90A031DDD2AF80A031DDD2AF70AF0
:1005B0000319E72AF80CF90CFA0C3208BD003608CA
:1005C000BD06BD1FE52AF817EB2AF813EB2AF70141
:1005D000F801F901FA01831208008318F22AC230E7
:1005E00084008313F701F801F901FA018316C201AF
:1005F000C301C401C501410840043F043E0403197E
:10060000312B2030C6000310BA0DBB0DBC0DBD0D43
:10061000C20DC30DC40DC50D41084502031D1A2BA3
:1006200040084402031D1A2B3F084302031D1A2BE6
:100630003E084202031C2B2B3E08C2023F08031C4B
:100640003F0FC3024008031C400FC4024108031CB3
:10065000410FC5020314F70DF80DF90DFA0DC60B85
:10066000032B42088000840A43088000840A44085F
:100670008000840A4508800083120800040883165D
:10068000B2003108B4000319602B3008BD002F08F8
:10069000BC002E08BB002D08BA00C101C0012030EB
:1006A000BF008230BE008312AA217A088316B000F0
:1006B0007908AF007808AE007708AD00B40B452B81
:1006C0003008BD002F08BC002E08BB002D08BA0062
:1006D0003A08B63CBA00FA013B08BE00BB1703104B
:1006E000BB0CBC0CBD0CFA0CF90CF80CF70CBA0BDB
:1006F0006F2BBE1F862BF709F809F909FA09F70ACB
:100700000319F80A0319F90A0319FA0A7A08B0005A
:100710007908AF007808AE007708AD00B01F9D2BB8
:10072000B203B216AD09AE09AF09B009AD0A03199B
:10073000AE0A0319AF0A0319B00A3B30B9009A3068
:10074000B800CA30B700B6010A30B4003108031946
:10075000B20A8314AD30840083133008BD002F0823
:10076000BC002E08BB002D08BA003908C1003808AB
:10077000C0003708BF003608BE008312ED2278089B
:10078000F708031DDA2B8316310A3402031DCA2B26
:100790008312DA2B32080319DD2B0F3934020319C7
:1007A000D32B0318152CB21B152C321BDD2B20303C
:1007B0000F2C831220308316B205B21EED2BB2121D
:1007C0003108031DB2037708B2002D30BA0083123E
:1007D000512183163208F700B20131083402031D9B
:1007E000FD2B7708B2002E30BA00831251218316F8
:1007F0003208F7002030B20500303030B21E0F2C26
:10080000B2123108031DB2037708B2002D30BA00CE
:100810008312512183163208F700B2013030F707F6
:100820007708BA0083125121831683103908BD005E
:100830003808BC003708BB003608BA00C101C00147
:10084000BF010A30BE008312ED227A088316B90078
:100850007908B8007808B7007708B600B40BA92B60
:1008600083128A150A12562A8316B5010408B400A9
:100870003510831B3514AE1F452CB417341EB40A33
:10088000AD09AE09AD0A0319AE0A2E0EF038B0005C
:10089000B007E23EB100323EB3002E080F39B10777
:1008A000B107B307E93EB200B207B2072D0E0F3908
:1008B000B207B307B20DB30DB309B30D2D080F394D
:1008C000B307B00D0730AF000A30B307B203031C03
:1008D000652CB207B103031C692CB107B003031CDC
:1008E0006D2CB007AF03031C712CAF308400831351
:1008F00007303405341384033405031D862C341A61
:10090000840A341A862C2030F700A32C8407B330D5
:100910000402031934170008F700031D972C341B39
:10092000972C341AB32CB419972C2030A22CB41F56
:100930009F2C2D30F70084033413B413A32CB4156B
:1009400034123030F707AE010408AD002E10831BBF
:100950002E147708BA008312512183162D088400C3
:1009600083132E188317840A341F872C83128A1549
:100970000A127C2B8030831CC02C8316B206831293
:100980008316B701B8012E08B6003208B6062D0846
:100990000319AE2DB500F70031080319B72DB502C4
:1009A0000319532D031C112D3208BB00BB1733084C
:1009B000BA003408B900B8010310BB0CBA0CB90C6A
:1009C000B80CB50BDB2CB61FE82C3714CB2D371029
:1009D00035103716B03084008313E02D3712B61B64
:1009E000FB2C351C062DBB0CBA0CB90CB80CF70A45
:1009F0000319C62D062DBB1B092D0310B80DB90D0B
:100A0000BA0DBB0DF7030319C62DFB2C3717732D39
:100A100037132E08B600B61F0F2DBB17BF2DBB1303
:100A2000BF2D3108B500F7002D08B5022E08BB0018
:100A3000BB172F08BA003008B900B8010310BB0C6F
:100A4000BA0CB90CB80CB50B1D2DB61F2A2DB71456
:100A5000CB2DB7103510B716B43084008313E02DBA
:100A6000B712B61B3D2D351C482DBB0CBA0CB90C6A
:100A7000B80CF70A0319C62D482DBB1B4B2D0310CC
:100A8000B80DB90DBA0DBB0DF7030319C62D3D2DD9
:100A9000B717732DB7133208B600B61F512DBB1709
:100AA000BF2DBB13BF2D3208BB00BB173308BA00E4
:100AB0003408B900B61F602DBB133715CB2D371185
:100AC000B8013510B03084008313E02DB61B892D9A
:100AD0002E08B600351C732DBB0CBA0CB90CB80C23
:100AE000F70A0319C62DB81F842DB90A031D842DDA
:100AF000BA0A031D842DBB0A031D842DBB0CBA0C3E
:100B0000B90CF70A0319C62D371B082DB71B4A2D40
:100B1000A82D8030BB06BB1F912DCB2D3208B6000F
:100B20009E2D2E08B600BB08031D9E2DBA08031D7E
:100B30009E2DB908031D9E2DF701BF2DBB1BA82DAF
:100B40000310B80DB90DBA0DBB0DF70B9E2DC62DB8
:100B5000B61FAC2DBB17BF2DBB13BF2D3108F7003F
:100B60003208BB003308BA003408B900BF2D2D0885
:100B7000F7002E08BB002F08BA003008B9003B0868
:100B8000F8003A08F9003908FA00FE2DF701F801DB
:100B9000F901FA01FE2DB801B909BA09BB09B80972
:100BA000B80A031DD92DB90A031DD92DBA0A031994
:100BB000BB0A3718E72CB718292D37195F2D8E2D52
:100BC0000008B907031CEA2DBA0A031DEA2DBB0A67
:100BD0000319351484030008BA07031CF22DBB0A5D
:100BE0000319351484030008801F803ABB070318DB
:100BF0003514371AEE2CB71A302D662D83128A154C
:100C00000A12A52B83162E08B5003208B506B51FAB
:100C10000E2E03110310AE1B0314412E2E08B50037
:100C20003108B6002D08B60203191C2EB51F412E3F
:100C30000308013A8300412E3208B6002E08B6029E
:100C40000319282EB51F412E0308013A8300412EB7
:100C50003308B6002F08B6020319342EB51F412EF3
:100C60000308013A8300412E3408B6003008B6026A
:100C70000319402EB51F412E0308013A8300412E6F
:060C8000031083120800BE
:1010000003081F3983000130C300C701C601C501B1
:10101000C401CB01CA01C901C801CF01CE01CD0174
:10102000CC01D301D201D1017F30D000D501D40150
:101030005610D610561183161F149F141F159F119A
:1010400007309C0083134E308312A0005530A1005E
:101050004F30A2004330A3002030A400A500A60119
:101060005830A7004130A8004E30A9004730AA00F0
:101070002030AB00AC00AD015230AE005530AF00B7
:101080004F30B0005530B1002030B200B300B40191
:101090005330B5005530B6004130B7002030B800AD
:1010A000B900BA00BB014430BC005F30BD00413024
:1010B000BE004E30BF002030C000C100C201FF3072
:1010C0008316870006118312061183168610831279
:1010D000861083161F109F101F119F111F1383125C
:1010E0001F139F1383169F1383121F14DA01D90154
:1010F000D801D701DE01DD01DC01DB01E201E10104
:10110000E001DF018A11E9288A150B308316BB0044
:101110000130BC008A1183123D218A155230E30050
:101120006530E4006130E5006C30E6005F30E700D8
:101130004830E800E901EA016A08053C031CAE28D2
:1011400063306A078400831300088316A900BA007D
:101150008A11831251218A15EA0A9C280A308316C3
:10116000BB000130BC008A1183123D218A157C30FE
:101170008316BA008A11831251218A150A30831608
:10118000BB000230BC008A1183123D218A157C30DD
:101190008316BA008A11831251218A1501308316F1
:1011A000BB00BC008A1183123D218A154D30EB0033
:1011B0003A30EC00ED01EE016E08013C031CEE2814
:1011C0006B306E078400831300088316A900BA00F1
:1011D0008A11831251218A15EE0ADC284830EF006B
:1011E0005F30F0005330F1004530F2005430F3002E
:1011F0003A30F400F50101308316BB000230BC0028
:101200008A1183123D218A15F6017608053C031CDC
:1012100017296F3076078400831300088316A9000E
:10122000BA008A11831251218A15F60A05294E3017
:101230008316A0005530A1004F30A2004330A30018
:101240002030A400A500A6010330BB000130BC0083
:101250008A1183123D218A15FB017B08053C031C82
:101260003F29A0307B078400831300088316A90060
:10127000BA008A11831251218A15FB0A2D291F15E4
:101280001F1940291E08FA0083161E08AD007A08AF
:10129000AE008A1183128B218A157A08DA00790848
:1012A000D9007808D8007708D7005A088316BD00FF
:1012B000831259088316BC00831258088316BB009A
:1012C000831257088316BA00C101C0012030BF0045
:1012D0008130BE008A118312AA218A157A088316EA
:1012E000AC007908AB007808AA007708A9002C08A0
:1012F000B4002B08B3002A08B2002908B100B801D5
:10130000FF30B7007F30B6008E30B5008A118312EF
:1013100021228A157A08DE007908DD007808DC00D1
:101320007708DB005A088316BD008312590883161C
:10133000BC00831258088316BB008312570883161B
:10134000BA00C101C030C0005A30BF008A30BE00B0
:101350008A118312AA218A157A088316AC007908AB
:10136000AB007808AA007708A9002C08B4002B0865
:10137000B3002A08B2002908B100B801FF30B70055
:101380007F30B6008E30B5008A11831221228A1573
:101390007A08E2007908E1007808E0007708DF00C9
:1013A00062088316B400831261088316B3008312A7
:1013B00060088316B20083125F088316B10083129F
:1013C00053088316B800831252088316B70083129D
:1013D00051088316B600831250088316B5008A118F
:1013E000831221228A157A08CB007908CA0078086E
:1013F000C9007708C80053088316BD00831252083D
:101400008316BC00831251088316BB008312500858
:101410008316BA00C101C0012030BF008230BE0077
:101420008A118312AA218A1562088316B4008312D6
:1014300061088316B300831260088316B20083121A
:101440005F088316B1007A08B8007908B7007808F9
:10145000B6007708B5008A11831221228A157A080E
:10146000CF007908CE007808CD007708CC000B308B
:101470008316BB000230BC008A1183123D218A15FD
:10148000893084004F088316B00083124E088316FB
:10149000AF0083124D088316AE0083124C088316EA
:1014A000AD000430B1008A1183123E2B8A15071853
:1014B0005B2A5614662A8718662A831686108312BA
:1014C0008610831606118312061156105618B62B75
:1014D0008719F22A4308053C031D712A0130C30015
:1014E000732A0130C30703308316BB000130BC00F0
:1014F0008A1183123D218A15430B922AFC017C0834
:10150000053C031C912A20307C07840083130008CB
:101510008316A900BA008A11831251218A15FC0A88
:101520007F2AF12A4308023C031DAA2AFD017D08F7
:10153000053C031CA92A27307D078400831300087B
:101540008316A900BA008A11831251218A15FD0A57
:10155000972AF12A4308033C031DC22AFE017E0894
:10156000053C031CC12A2E307E078400831300082B
:101570008316A900BA008A11831251218A15FE0A26
:10158000AF2AF12A4308043C031DDC2A8316A70175
:101590002708053C031CDA2A35302707840083130B
:1015A0000008A900BA008A11831251218A158316F6
:1015B000A70AC82AF02A83128316A8012808053C26
:1015C000031CF02A3C302807840083130008A9007C
:1015D000BA008A11831251218A158316A80ADE2ABD
:1015E0008312272B0719272B430BFC2AD301D20187
:1015F000D1017F30D000272B4308023C031D072B6D
:101600003330D300D200D1007E30D000272B4308E6
:10161000033C031D142B7130D3003D30D2004A30FF
:10162000D1007E30D000272B4308043C031D212B22
:101630000A30D300D730D2000330D1007F30D00041
:10164000272B6630D300D200D1007E30D000550861
:10165000013C031C382B031D312B5408223C031C76
:10166000382B071A382B0A30D4070318D50A672BF2
:10167000D508031D3F2B5408093C0318482B871A33
:10168000482B0A30D4020030031C0130D502672BEE
:101690005508013C031C592B031D522B54082B3CAD
:1016A000031C592B071B592B0130D4070318D50AEB
:1016B000672BD408031D5F2BD5080319672B871BE5
:1016C000672B0130D4020030031C0130D5020730F3
:1016D0008316BB000230BC008A1183123D218A159B
:1016E0000330840055088316AE0083125408831615
:1016F000AD008A118312342C8A1555088316AE006A
:10170000831254088316AD008A1183128B218A1527
:1017100083147A088316B0007908AF007808AE0009
:101720007708AD0083124F088316B40083124E0869
:101730008316B30083124D088316B20083124C083F
:101740008316B1008A118312BA2C8A157A08C70051
:101750007908C6007808C5007708C400C830831629
:10176000BB008A11831204208A15622C8316B001F3
:10177000AF01AE01AD01831247088316B400831296
:1017800046088316B300831245088316B2008312FD
:1017900044088316B1008A11831202268A15031C9D
:1017A000D72B8316061183120615D614F52B47087E
:1017B0008316B000831246088316AF0083124508D3
:1017C0008316AE00831244088316AD00B401B30142
:1017D000B201B1018A11831202268A15031CF52B6E
:1017E00083168610831286145615D61C2D2C550888
:1017F0008316AE00831254088316AD008A1183123B
:101800008B218A157A088316B0007908AF00780812
:10181000AE007708AD0083124F088316B400831220
:101820004E088316B30083124D088316B20083124C
:101830004C088316B1008A11831202268A150318F8
:10184000232C031D2D2C8316061183120611D6108E
:10185000C701C601C501C401622C561D622C550882
:101860008316AE00831254088316AD008A118312CA
:101870008B218A154F088316B00083124E088316F9
:10188000AF0083124D088316AE0083124C088316F6
:10189000AD007A08B4007908B3007808B200770880
:1018A000B1008A11831202268A150318592C031DD0
:1018B000622C83168610831286105611C701C6014A
:0818C000C501C4013F296300CA
:02400E003A3F37
:00000001FF
;PIC16F877A
;CRC=0535  CREATED="30-Dec-21 21:59"
